:0A0000000C9454000C9400000C94C2
:10000A0000000C9400000C9400000C9400000C9466
:10001A0000000C9400000C9481000C9400000C94D5
:10002A0000000C9400000C9400000C9400000C9446
:10003A0000000C9400000C9400000C9400000C9436
:10004A0000000C9400000C9400001027E8036400E0
:10005A000A00010000100001100001000000000069
:10006A00000000004672657175656E6379206361F0
:10007A006C63756C61746564203D2025640063615E
:10008A006C63756C6174650080C0080004006600CA
:10009A000A00600188000200D20192000000F89470
:1000AA00EE27ECBBF1E0FBBFEBBFE5BF8DE0A2E0C2
:1000BA00BB27ED938A95E9F780E094E0A0E6ED93FB
:1000CA000197E9F7E4E9F0E085919591009761F0ED
:1000DA00A591B59105901590BF01F00105900D927B
:1000EA000197E1F7FB01F0CFEFE5EDBFE4E0EEBFEA
:1000FA00C0E6D1E00C94F9000A921A92FA926A9335
:10010A007A938A939A93AA93BA93EA93FA93EFB754
:10011A00EA93F20131962F01E4E6F0E0E415F505E1
:10012A0009F050C0E0E0EFBDE0E0F0E0FDBDECBD5D
:10013A00E0E2E8BFE1E4EEBDE8B7E5FFFDCF0E94EB
:10014A0063033F01E0E2E8BFE1E4EEBDE8B7E5FFA3
:10015A00FDCF0E9463034F01E0E2E8BFE0E0EEBD9D
:10016A006814790464F586D0F401E619F7095F0189
:10017A000E94B803A0E0B2E18AE790E00E94BD03C2
:10018A00E093CE01F093CF016093D0017093D10137
:10019A00EAE6F1E0FA93EA93EEE6F0E0FA93EA93FC
:1001AA00E091CE01F091CF010E94B8030E94EA03C8
:1001BA0084E00E9416032896AAE6B1E002C0A0E6EF
:1001CA00B1E07BD0EFEFEDBDE0EFECBDE991EFBF21
:1001DA00F991E991B991A991999189917991699145
:1001EA00F990199009901895A4E178D0EFEFEABB3D
:1001FA00E0E0EBBBEFEFE1BBE0E0E2BBEFBDE1E04B
:10020A00EEBDEFEFEDBDE0EFECBDE0E0E5BFE4BF32
:10021A00E4E0E9BF7894FFCFFFCFAA93EBB3EF7086
:10022A00AE2FE881E07FEA2BEBBB8DE08A95F1F7F0
:10023A00DA9A8DE08A95F1F7DA988DE08A95F1F7E6
:10024A007AC0AA93A881E9DFE881E295E883A881C8
:10025A00E4DF85E88A95F1F76EC0AA93E881F0E0B9
:10026A00EE52FE4FE081A981AE0FEBDFD980C88044
:10027A0022960895A2E00E946C03ACE0E2DFA1E0BE
:10028A000E946C03E0E0CE2EDE2E0895AA93A88188
:10029A00AA3021F0E091D601DE1648F0E0E0EA93B8
:1002AA00C394AC2DDADFA881AA3009F444C0D394F0
:1002BA00D89AA881C6DFD8983EC0BA93AA931A934F
:1002CA00A981BA81ED91A983BA831E2FE03019F072
:1002DA00A12FDCDFF5CF188123960895AA93EAB3FC
:1002EA00E06FEABBD29AD09AD19ADA98D898D9987C
:1002FA00E881E093D601E058E093D401E881E05424
:10030A00E093D501A4E1B0E00E94A6030E94720323
:10031A000E9472030E947203A0E27FDF88EC90E0E1
:10032A000197F1F7A8E28DDFA4E08BDFA5E889DF6A
:10033A00A6E087DF9FDF21960895BA93AA931A93BE
:10034A000A93AA81BB8112960E94E203309759F15F
:10035A00AA81BB8114960E94E2038F01309761F053
:10036A000230E0E01E0798F0F80131978F01AA8168
:10037A00BB811496ED93FC93AA81BB811296ED91F1
:10038A00FD913196FE93EE933197AC81A083AA81B9
:10039A00BB810E94E203FF232AF0ED91FD91319681
:1003AA00FE93EE9306C0AA81BB81EFEFFFEFED93B8
:1003BA00FC931981088125960895BA93AA932697E2
:1003CA000E94EF0310E0AC85BD85E0E0F0E0ED931C
:1003DA00FC93EA89FB893196EA8BFB8B3197E4918E
:1003EA002E2FE03009F415C1E12FE03039F425321F
:1003FA0011F411E002C00E947A030AC1E130A9F4A3
:10040A00253219F40E947A0302C112E040E000E0AA
:10041A002D3211F401E0FCC02B3211F44BE2F8C08A
:10042A00203211F440E2F4C002C0E23039F450E064
:10043A0013E0203311F40068EBC003C0E33009F085
:10044A00E7C0203310F02A3308F007C0AAE05A9F09
:10045A00502DE22FE0535E0FDBC0E22FE33649F462
:10046A000E948103E889F989A481AA930E948703DB
:10047A00CEC0E33741F40E9481030E948D030E949B
:10048A004A031E2F0AC0E03761F40E9481030E94CA
:10049A008D030E9456031E2F086002600F7730E01A
:1004AA0034C0E43611F0E93611F4046002C0E537CD
:1004BA0031F4E4E5F0E0EE83FF8315E00CC0E835A3
:1004CA0011F4086003C0E83709F0A1C0EEE5F0E0D6
:1004DA00EE83FF8314E002FF14C00E9481030E948E
:1004EA009703AB85AA233AF4EA85FB850E94B403F5
:1004FA00EA87FB874DE2403011F01F5F01C00B7F96
:10050A0004C00E9481030E94970300FD11C01517C1
:10051A0078F407FF08C002FF04C00B7F242F115094
:10052A0001C020E301C020E20E947A035150EFCFBC
:10053A00312F01FF17C03030A1F003FF06C0EE8152
:10054A00FF812591EE83FF8305C0AE81BF812D9186
:10055A00AE83BF830E947A03503009F05150315064
:10056A00EACF4BC020E3EE81FF810E94E603E887D1
:10057A00F987EE81FF813296EE83FF83E885F9855C
:10058A00AA85BB85AE17BF0750F02F5FA885B9852E
:10059A00EA85FB85EA1BFB0BEA87FB87EFCF2A3349
:1005AA0028F003FF02C0295F01C0295D04FD1AC0BB
:1005BA00213320F4A885B985119709F409C0531786
:1005CA0010F000FF01C013C020E207FF0BC020E3B8
:1005DA00006102FF07C00B7F4A930E9487035030D5
:1005EA0009F051500E947A03503009F051503150AD
:1005FA00A885B985129708F0B5CF00FF08C050301A
:10060A0031F05150E0E2EA930E948703F8CF10E0FC
:10061A00E0CEAC85BD850E94E2030E94F603649693
:10062A000895FF92F82E26970E94F1030E949F03D5
:10063A00309719F4EFEFFFEF23C0DE0116960E9400
:10064A00B0038D010E949F03EE83FF83E0E0E887F9
:10065A00E987DE011A960E94B0030E94E203FA9328
:10066A00EA931A930A93E2EAF1E0FA93EA93DE0133
:10067A001A96A3DE9F01AE81BF81E0E0EC93F901F7
:10068A000E94F8032A96FF900895BA93AA93A99113
:10069A00B991EE27FF276D91662311F03196FBCFB2
:1006AA000895BA93AA93AA27BB27E991F9910590CD
:1006BA00002011F01196FBCFFD010895E7B5FE2F3A
:1006CA00E0E0DF01E6B5F0E0EA0FFB1F08950E94C3
:1006DA002601A3E0B0E00C94A603A0E30E94120155
:1006EA0088EC90E00197F1F708952A93AD85BE85CD
:1006FA00EF85F88909950895E889F9893497E88B8F
:10070A00F98B0895AD85BE85EF85F8890995089519
:10071A00A889B98914960E94E203EE83FF83AE8109
:10072A00BF810895A889B98914960E94E203EA87CD
:10073A00FB870895DE011C960E94B0030E94E20323
:10074A000895109639F080ED97E00197F1F7A89592
:10075A001197C9F708950024AF0DB01D0895F195BA
:10076A00E195F04008956F2F660F660B762F089576
:10077A003F934F935F93002411244427552730E277
:10078A00AA0FBB1F881F991F001C111C441F551F4D
:10079A000E1A1F0A460B570B28F40E0E1F1E461F71
:1007AA00571F01C0A1603A9559F7FD01BC01D0015C
:1007BA00CA015F914F913F910895ED91FC91119774
:1007CA0008950590F491E02D08957A936A93FA9327
:1007DA00EA9308955A934A933A932A931A930A9357
:1007EA0008955D814C813B812A8119810881089590
:00000001FF
