:040000000C943E001E
:100004000C9400000C9400000C9400000C9400006C
:100014000C9400000C9400000C9400000C9400005C
:100024000C946B000C9400000C9400000C940000E1
:100034000C9400000C9400000C9400000C9400003C
:100044000C9400000C9400000C9400000C9400002C
:100054000100000000000100010000000100000098
:100064000000010001000000000001000000010088
:100074001F00620154000000F894EE27ECBBF1E08D
:10008400FBBFEBBFE5BF8DE0A2E0BB27ED938A95F4
:10009400E9F780E094E0A0E6ED930197E9F7E4E75F
:1000A400F0E085919591009761F0A591B591059047
:1000B4001590BF01F00105900D920197E1F7FB0146
:1000C400F0CFEFE5EDBFE4E0EEBFC0E6D1E00C9485
:1000D400D900AA93BA93EA93FA93EFB7EA93ECE0C0
:1000E400E2BFE1E0F0E0EC15FD0509F059C046146B
:1000F40057040CF452C0A6D0EE59FE4FE081E03014
:1001040011F4D89801C0D89A9DD0EC59FE4FE081E3
:10011400E03011F4D99801C0D99A94D0EA59FE4F2D
:10012400E081E03011F4DA9801C0DA9A8BD0E85912
:10013400FE4FE081E03011F4DB9801C0DB9AA0911E
:100144008201B0918301139744F4A2E8B1E0ED91E8
:10015400FD913196FE93EE9305C0E0E0E0938201B9
:10016400E0938301A0916101AA235AF4A614B70471
:1001740024F4F30131973F0103C0E1E0F0E069D0DA
:100184000AC06814790424F4F30131963F0103C0D2
:1001940065D0CC24DD2444245524F20131962F016A
:1001A400E991EFBFF991E991B991A9911895E0E02E
:1001B400E0938201E0938301E1E0F0E06F014ED02F
:1001C400EBE4F0E04F01EAE6FFEF5F013401442481
:1001D4005524E0E0E4BBE3BBEFEFEABBE0E0EBBBBC
:1001E400E2E0E3BFECE0E2BFE0E0ECBFEFBDEEBD78
:1001F400EDBDECBDE7BDE6BDEBBDEABDE9BDE8BDC7
:10020400E2BDE5BDE4BDE3BDE1E0E9BFE0E0E5BF9B
:10021400E4BFEAB9E0E8E8B9E0E0E0BFE6B9EDB987
:10022400E6BF78949A9904C000240C140D0409F0D4
:1002340007C034014424552411D0E1E0F0E06F01FB
:10024400F1CFFFCFE0918201F09183010E9433014D
:100254000895E0936001F09361010895EFEFFFEFDB
:10026400F8CFEE0FFF1FEE0FFF1FEE0FFF1F0895D5
:00000001FF
