:0C0000000C943E000C9400000C940000D6
:10000C000C9400000C9400000C9400000C94000064
:10001C000C9400000C9400000C946B000C940000E9
:10002C000C9400000C9400000C9400000C94000044
:10003C000C9400000C9400000C9400000C94000034
:10004C000C9400000C940000010000000000010062
:10005C000100000001000000000001000100000090
:10006C0000000100000001001F00600154000000AE
:10007C00F894EE27ECBBF1E0FBBFEBBFE5BF8DE0E6
:10008C00A2E0BB27ED938A95E9F780E094E0A0E627
:10009C00ED930197E9F7E4E7F0E0859195910097EE
:1000AC0061F0A591B59105901590BF01F0010590F7
:1000BC000D920197E1F7FB01F0CFEFE5EDBFE4E026
:1000CC00EEBFC0E6D1E00C94D2000A92EA93FA9308
:1000DC00EFB7EA93ECE0E2BFE1E0F0E0E615F705FC
:1000EC0009F054C0042C052861F5F4010E940F019D
:1000FC00E05AFE4FE081E03011F4D89801C0D89A54
:10010C00F4010E940F01EE59FE4FE081E03011F432
:10011C00D99801C0D99AF4010E940F01EC59FE4FF5
:10012C00E081E03011F4DA9801C0DA9AF4010E940F
:10013C000F01EA59FE4FE081E03011F4DB9801C069
:10014C00DB9AE5E0F0E0E415F5052CF4EAE0F0E0EC
:10015C00E415F5050CF402C0E0E0EBBBEAE0F0E0DE
:10016C00E415F50581F444245524E3E0F0E08E1603
:10017C009F0624F4F40131964F0104C0882499247D
:10018C006624772403C0F20131962F01E991EFBF69
:10019C00F991E991099018954424552488249924BF
:1001AC0066247724E0E0E4BBE3BBEFEFEABBE0E0DE
:1001BC00EBBBE4E0E3BFECE0E2BFE0E0ECBFEFBDA3
:1001CC00EEBDEDBDECBDE7BDE6BDEBBDEABDE9BDE9
:1001DC00E8BDE2BDE5BDE4BDE3BDE1E0E9BFE0E0C3
:1001EC00E5BFE4BFEAB9E0E8E8B9E0E0E0BFE6B9B2
:1001FC00EDB9E6BF78949A9904C00024061407045C
:10020C0009F005C044245524E1E0F0E03F01F3CFB0
:10021C00FFCFEE0FFF1FEE0FFF1FEE0FFF1F089516
:00000001FF
